{
  "contractName": "Addition",
  "abi": [
    {
      "inputs": [],
      "name": "nombre1",
      "outputs": [
        {
          "internalType": "uint256",
          "name": "",
          "type": "uint256"
        }
      ],
      "stateMutability": "view",
      "type": "function"
    },
    {
      "inputs": [],
      "name": "nombre2",
      "outputs": [
        {
          "internalType": "uint256",
          "name": "",
          "type": "uint256"
        }
      ],
      "stateMutability": "view",
      "type": "function"
    },
    {
      "inputs": [],
      "name": "addition1",
      "outputs": [
        {
          "internalType": "uint256",
          "name": "",
          "type": "uint256"
        }
      ],
      "stateMutability": "view",
      "type": "function"
    },
    {
      "inputs": [
        {
          "internalType": "uint256",
          "name": "a",
          "type": "uint256"
        },
        {
          "internalType": "uint256",
          "name": "b",
          "type": "uint256"
        }
      ],
      "name": "addition2",
      "outputs": [
        {
          "internalType": "uint256",
          "name": "",
          "type": "uint256"
        }
      ],
      "stateMutability": "pure",
      "type": "function"
    }
  ],
  "bytecode": "0x60806040526005600055600a60015534801561001a57600080fd5b506101348061002a6000396000f3fe6080604052348015600f57600080fd5b506004361060465760003560e01c80634d3e46e414604b57806356620c8a1460655780637a5ba40414606b578063f1d16438146071575b600080fd5b60516080565b604051605c919060d2565b60405180910390f35b60516095565b6051609b565b6051607c36600460b2565b60a1565b60006001546000546090919060db565b905090565b60015481565b60005481565b600060ab828460db565b9392505050565b6000806040838503121560c3578182fd5b50508035926020909101359150565b90815260200190565b6000821982111560f957634e487b7160e01b81526011600452602481fd5b50019056fea264697066735822122072fa41c16b3571c366d46fdcd85a8cf013771aae55ca550067261dab0a78ef9e64736f6c63430008000033",
  "immutableReferences": {},
  "source": "// SPDX-License-Identifier: MIT\r\npragma solidity ^0.8.0;\r\n\r\ncontract Addition {\r\n    uint public nombre1 = 5;\r\n    uint public nombre2 = 10;\r\n\r\n    function addition1() public view returns(uint) {\r\n        return nombre1 + nombre2;\r\n    }\r\n\r\n    function addition2(uint a, uint b) public pure returns(uint) {\r\n        return a + b;\r\n    }\r\n}",
  "sourcePath": "C:\\Users\\hp\\blockchain-tp-dapplyp-solidity\\contracts\\exercice1.sol",
  "compiler": {
    "name": "solc",
    "version": "0.8.0+commit.c7dfd78e.Emscripten.clang"
  },
  "schemaVersion": "3.4.16",
  "updatedAt": "2025-07-28T12:24:56.220Z",
  "devdoc": {
    "kind": "dev",
    "methods": {},
    "version": 1
  },
  "userdoc": {
    "kind": "user",
    "methods": {},
    "version": 1
  }
}