{
  "contractName": "Conversion",
  "abi": [
    {
      "inputs": [
        {
          "internalType": "uint256",
          "name": "montantEther",
          "type": "uint256"
        }
      ],
      "name": "etherEnWei",
      "outputs": [
        {
          "internalType": "uint256",
          "name": "",
          "type": "uint256"
        }
      ],
      "stateMutability": "pure",
      "type": "function"
    },
    {
      "inputs": [
        {
          "internalType": "uint256",
          "name": "montantWei",
          "type": "uint256"
        }
      ],
      "name": "weiEnEther",
      "outputs": [
        {
          "internalType": "uint256",
          "name": "",
          "type": "uint256"
        }
      ],
      "stateMutability": "pure",
      "type": "function"
    }
  ],
  "bytecode": "0x608060405234801561001057600080fd5b50610132806100206000396000f3fe6080604052348015600f57600080fd5b506004361060325760003560e01c806318b5d6e5146037578063b5fcda3414605a575b600080fd5b604660423660046093565b6069565b6040516051919060aa565b60405180910390f35b604660653660046093565b6081565b6000607b670de0b6b3a76400008360b3565b92915050565b6000607b82670de0b6b3a764000060d2565b60006020828403121560a3578081fd5b5035919050565b90815260200190565b60008260cd57634e487b7160e01b81526012600452602481fd5b500490565b600081600019048311821515161560f757634e487b7160e01b81526011600452602481fd5b50029056fea264697066735822122053962708740753594c743d9e84a074f3bd89206c406e5db0c89e44a44b9b8f7864736f6c63430008000033",
  "immutableReferences": {},
  "source": "// SPDX-License-Identifier: MIT\r\npragma solidity ^0.8.0;\r\n\r\ncontract Conversion {\r\n    function etherEnWei(uint montantEther) public pure returns(uint) {\r\n        return montantEther * 1 ether;\r\n    }\r\n    \r\n    function weiEnEther(uint montantWei) public pure returns(uint) {\r\n        return montantWei / 1 ether;\r\n    }\r\n}",
  "sourcePath": "C:\\Users\\hp\\blockchain-tp-dapplyp-solidity\\contracts\\exercice2.sol",
  "compiler": {
    "name": "solc",
    "version": "0.8.0+commit.c7dfd78e.Emscripten.clang"
  },
  "schemaVersion": "3.4.16",
  "updatedAt": "2025-07-28T12:24:56.225Z",
  "devdoc": {
    "kind": "dev",
    "methods": {},
    "version": 1
  },
  "userdoc": {
    "kind": "user",
    "methods": {},
    "version": 1
  }
}