{
  "contractName": "GestionChaines",
  "abi": [
    {
      "inputs": [],
      "name": "message",
      "outputs": [
        {
          "internalType": "string",
          "name": "",
          "type": "string"
        }
      ],
      "stateMutability": "view",
      "type": "function"
    },
    {
      "inputs": [
        {
          "internalType": "string",
          "name": "_message",
          "type": "string"
        }
      ],
      "name": "setMessage",
      "outputs": [],
      "stateMutability": "nonpayable",
      "type": "function"
    },
    {
      "inputs": [],
      "name": "getMessage",
      "outputs": [
        {
          "internalType": "string",
          "name": "",
          "type": "string"
        }
      ],
      "stateMutability": "view",
      "type": "function"
    },
    {
      "inputs": [
        {
          "internalType": "string",
          "name": "a",
          "type": "string"
        },
        {
          "internalType": "string",
          "name": "b",
          "type": "string"
        }
      ],
      "name": "concatener",
      "outputs": [
        {
          "internalType": "string",
          "name": "",
          "type": "string"
        }
      ],
      "stateMutability": "pure",
      "type": "function"
    },
    {
      "inputs": [
        {
          "internalType": "string",
          "name": "_texte",
          "type": "string"
        }
      ],
      "name": "concatenerAvec",
      "outputs": [
        {
          "internalType": "string",
          "name": "",
          "type": "string"
        }
      ],
      "stateMutability": "view",
      "type": "function"
    },
    {
      "inputs": [
        {
          "internalType": "string",
          "name": "s",
          "type": "string"
        }
      ],
      "name": "longueur",
      "outputs": [
        {
          "internalType": "uint256",
          "name": "",
          "type": "uint256"
        }
      ],
      "stateMutability": "pure",
      "type": "function"
    },
    {
      "inputs": [
        {
          "internalType": "string",
          "name": "a",
          "type": "string"
        },
        {
          "internalType": "string",
          "name": "b",
          "type": "string"
        }
      ],
      "name": "comparer",
      "outputs": [
        {
          "internalType": "bool",
          "name": "",
          "type": "bool"
        }
      ],
      "stateMutability": "pure",
      "type": "function"
    }
  ],
  "bytecode": "0x608060405234801561001057600080fd5b5061067d806100206000396000f3fe608060405234801561001057600080fd5b506004361061007d5760003560e01c80634f7596871161005b5780634f759687146100e05780639103ca3314610100578063ce6d41de14610113578063e21f37ce1461011b5761007d565b806317646f8914610082578063368b8772146100ab578063413d4384146100c0575b600080fd5b610095610090366004610421565b610123565b6040516100a29190610573565b60405180910390f35b6100be6100b93660046103e6565b610139565b005b6100d36100ce3660046103e6565b610150565b6040516100a2919061057e565b6100f36100ee3660046103e6565b61017c565b6040516100a291906105b1565b6100d361010e366004610421565b610180565b6100d36101ac565b6100d361023e565b8051602091820120825192909101919091201490565b805161014c9060009060208401906102cc565b5050565b60606000826040516020016101669291906104cd565b6040516020818303038152906040529050919050565b5190565b6060828260405160200161019592919061049e565b604051602081830303815290604052905092915050565b6060600080546101bb906105f6565b80601f01602080910402602001604051908101604052809291908181526020018280546101e7906105f6565b80156102345780601f1061020957610100808354040283529160200191610234565b820191906000526020600020905b81548152906001019060200180831161021757829003601f168201915b5050505050905090565b6000805461024b906105f6565b80601f0160208091040260200160405190810160405280929190818152602001828054610277906105f6565b80156102c45780601f10610299576101008083540402835291602001916102c4565b820191906000526020600020905b8154815290600101906020018083116102a757829003601f168201915b505050505081565b8280546102d8906105f6565b90600052602060002090601f0160209004810192826102fa5760008555610340565b82601f1061031357805160ff1916838001178555610340565b82800160010185558215610340579182015b82811115610340578251825591602001919060010190610325565b5061034c929150610350565b5090565b5b8082111561034c5760008155600101610351565b600082601f830112610375578081fd5b813567ffffffffffffffff8082111561039057610390610631565b604051601f8301601f1916810160200182811182821017156103b4576103b4610631565b6040528281528483016020018610156103cb578384fd5b82602086016020830137918201602001929092529392505050565b6000602082840312156103f7578081fd5b813567ffffffffffffffff81111561040d578182fd5b61041984828501610365565b949350505050565b60008060408385031215610433578081fd5b823567ffffffffffffffff8082111561044a578283fd5b61045686838701610365565b9350602085013591508082111561046b578283fd5b5061047885828601610365565b9150509250929050565b600081516104948185602086016105c6565b9290920192915050565b600083516104b08184602088016105c6565b8351908301906104c48183602088016105c6565b01949350505050565b82546000908190600281046001808316806104e957607f831692505b602080841082141561050957634e487b7160e01b87526022600452602487fd5b81801561051d576001811461052e5761055a565b60ff1986168952848901965061055a565b6105378b6105ba565b885b868110156105525781548b820152908501908301610539565b505084890196505b50505050505061056a8185610482565b95945050505050565b901515815260200190565b600060208252825180602084015261059d8160408501602087016105c6565b601f01601f19169190910160400192915050565b90815260200190565b60009081526020902090565b60005b838110156105e15781810151838201526020016105c9565b838111156105f0576000848401525b50505050565b60028104600182168061060a57607f821691505b6020821081141561062b57634e487b7160e01b600052602260045260246000fd5b50919050565b634e487b7160e01b600052604160045260246000fdfea2646970667358221220de4817c631d1f172b25556f2098050ebbbb022c7a611c1bc2602b73bd570b9f764736f6c63430008000033",
  "immutableReferences": {},
  "source": "// SPDX-License-Identifier: MIT\r\npragma solidity ^0.8.0;\r\n\r\ncontract GestionChaines {\r\n    string public message;\r\n    \r\n    function setMessage(string memory _message) public {\r\n        message = _message;\r\n    }\r\n    \r\n    function getMessage() public view returns(string memory) {\r\n        return message;\r\n    }\r\n    \r\n    function concatener(string memory a, string memory b) public pure returns(string memory) {\r\n        return string(abi.encodePacked(a, b));\r\n    }\r\n    \r\n    function concatenerAvec(string memory _texte) public view returns(string memory) {\r\n        return string(abi.encodePacked(message, _texte));\r\n    }\r\n    \r\n    function longueur(string memory s) public pure returns(uint) {\r\n        return bytes(s).length;\r\n    }\r\n    \r\n    function comparer(string memory a, string memory b) public pure returns(bool) {\r\n        return keccak256(bytes(a)) == keccak256(bytes(b));\r\n    }\r\n}",
  "sourcePath": "C:\\Users\\hp\\blockchain-tp-dapplyp-solidity\\contracts\\exercice3.sol",
  "compiler": {
    "name": "solc",
    "version": "0.8.0+commit.c7dfd78e.Emscripten.clang"
  },
  "schemaVersion": "3.4.16",
  "updatedAt": "2025-07-28T12:24:56.230Z",
  "devdoc": {
    "kind": "dev",
    "methods": {},
    "version": 1
  },
  "userdoc": {
    "kind": "user",
    "methods": {},
    "version": 1
  }
}