{
  "contractName": "GestionTableau",
  "abi": [
    {
      "inputs": [],
      "stateMutability": "nonpayable",
      "type": "constructor"
    },
    {
      "inputs": [
        {
          "internalType": "uint256",
          "name": "",
          "type": "uint256"
        }
      ],
      "name": "nombres",
      "outputs": [
        {
          "internalType": "uint256",
          "name": "",
          "type": "uint256"
        }
      ],
      "stateMutability": "view",
      "type": "function"
    },
    {
      "inputs": [
        {
          "internalType": "uint256",
          "name": "_nombre",
          "type": "uint256"
        }
      ],
      "name": "ajouterNombre",
      "outputs": [],
      "stateMutability": "nonpayable",
      "type": "function"
    },
    {
      "inputs": [
        {
          "internalType": "uint256",
          "name": "_index",
          "type": "uint256"
        }
      ],
      "name": "getElement",
      "outputs": [
        {
          "internalType": "uint256",
          "name": "",
          "type": "uint256"
        }
      ],
      "stateMutability": "view",
      "type": "function"
    },
    {
      "inputs": [],
      "name": "afficheTableau",
      "outputs": [
        {
          "internalType": "uint256[]",
          "name": "",
          "type": "uint256[]"
        }
      ],
      "stateMutability": "view",
      "type": "function"
    },
    {
      "inputs": [],
      "name": "calculerSomme",
      "outputs": [
        {
          "internalType": "uint256",
          "name": "",
          "type": "uint256"
        }
      ],
      "stateMutability": "view",
      "type": "function"
    }
  ],
  "bytecode": "0x608060405234801561001057600080fd5b5060408051606081018252600a815260146020820152601e9181019190915261003d906000906003610043565b506100a8565b828054828255906000526020600020908101928215610083579160200282015b82811115610083578251829060ff16905591602001919060010190610063565b5061008f929150610093565b5090565b5b8082111561008f5760008155600101610094565b61033f806100b76000396000f3fe608060405234801561001057600080fd5b50600436106100575760003560e01c80631f4440b01461005c5780633a7d22bc1461007a5780637692fb5f1461009a578063bd92c667146100ad578063e66df334146100c2575b600080fd5b6100646100ca565b604051610071919061024b565b60405180910390f35b61008d610088366004610233565b610122565b60405161007191906102b7565b61008d6100a8366004610233565b610180565b6100c06100bb366004610233565b6101a1565b005b61008d6101d3565b6060600080548060200260200160405190810160405280929190818152602001828054801561011857602002820191906000526020600020905b815481526020019060010190808311610104575b5050505050905090565b60008054821061014d5760405162461bcd60e51b81526004016101449061028f565b60405180910390fd5b6000828154811061016e57634e487b7160e01b600052603260045260246000fd5b90600052602060002001549050919050565b6000818154811061019057600080fd5b600091825260209091200154905081565b600080546001810182559080527f290decd9548b62a8d60345a988386fc84ba6bc95484008f6362f93160ef3e5630155565b600080805b60005481101561022d576000818154811061020357634e487b7160e01b600052603260045260246000fd5b90600052602060002001548261021991906102c0565b915080610225816102d8565b9150506101d8565b50905090565b600060208284031215610244578081fd5b5035919050565b6020808252825182820181905260009190848201906040850190845b8181101561028357835183529284019291840191600101610267565b50909695505050505050565b6020808252600e908201526d496e64657820696e76616c69646560901b604082015260600190565b90815260200190565b600082198211156102d3576102d36102f3565b500190565b60006000198214156102ec576102ec6102f3565b5060010190565b634e487b7160e01b600052601160045260246000fdfea2646970667358221220ce5dac8bab45184568bb674b8cb7b4f08ffd27e6f00b8ec39e86d4623b95041b64736f6c63430008000033",
  "immutableReferences": {},
  "source": "// SPDX-License-Identifier: MIT\r\npragma solidity ^0.8.0;\r\n\r\ncontract GestionTableau {\r\n    uint[] public nombres;\r\n    \r\n    constructor() {\r\n        nombres = [10, 20, 30];\r\n    }\r\n    \r\n    function ajouterNombre(uint _nombre) public {\r\n        nombres.push(_nombre);\r\n    }\r\n    \r\n    function getElement(uint _index) public view returns(uint) {\r\n        require(_index < nombres.length, \"Index invalide\");\r\n        return nombres[_index];\r\n    }\r\n    \r\n    function afficheTableau() public view returns(uint[] memory) {\r\n        return nombres;\r\n    }\r\n    \r\n    function calculerSomme() public view returns(uint) {\r\n        uint somme = 0;\r\n        for(uint i = 0; i < nombres.length; i++) {\r\n            somme += nombres[i];\r\n        }\r\n        return somme;\r\n    }\r\n}",
  "sourcePath": "C:\\Users\\hp\\blockchain-tp-dapplyp-solidity\\contracts\\exercice6.sol",
  "compiler": {
    "name": "solc",
    "version": "0.8.0+commit.c7dfd78e.Emscripten.clang"
  },
  "schemaVersion": "3.4.16",
  "updatedAt": "2025-07-28T12:24:56.240Z",
  "devdoc": {
    "kind": "dev",
    "methods": {},
    "version": 1
  },
  "userdoc": {
    "kind": "user",
    "methods": {},
    "version": 1
  }
}