{
  "contractName": "Parite",
  "abi": [
    {
      "inputs": [
        {
          "internalType": "uint256",
          "name": "_nombre",
          "type": "uint256"
        }
      ],
      "name": "estPair",
      "outputs": [
        {
          "internalType": "bool",
          "name": "",
          "type": "bool"
        }
      ],
      "stateMutability": "pure",
      "type": "function"
    }
  ],
  "bytecode": "0x608060405234801561001057600080fd5b5060d98061001f6000396000f3fe6080604052348015600f57600080fd5b506004361060285760003560e01c80631cee907f14602d575b600080fd5b603c60383660046062565b6050565b604051604791906079565b60405180910390f35b6000605b6002836084565b1592915050565b6000602082840312156072578081fd5b5035919050565b901515815260200190565b600082609e57634e487b7160e01b81526012600452602481fd5b50069056fea2646970667358221220e0afade2d15a00cf9b50e2e5387495859677fdb4bba340a196ae7cb6e4e52a7464736f6c63430008000033",
  "immutableReferences": {},
  "source": "// SPDX-License-Identifier: MIT\r\npragma solidity ^0.8.0;\r\n\r\ncontract Parite {\r\n    function estPair(uint _nombre) public pure returns(bool) {\r\n        return _nombre % 2 == 0;\r\n    }\r\n}",
  "sourcePath": "C:\\Users\\hp\\blockchain-tp-dapplyp-solidity\\contracts\\exercice5.sol",
  "compiler": {
    "name": "solc",
    "version": "0.8.0+commit.c7dfd78e.Emscripten.clang"
  },
  "schemaVersion": "3.4.16",
  "updatedAt": "2025-07-28T12:24:56.236Z",
  "devdoc": {
    "kind": "dev",
    "methods": {},
    "version": 1
  },
  "userdoc": {
    "kind": "user",
    "methods": {},
    "version": 1
  }
}