{
  "contractName": "Payment",
  "abi": [
    {
      "inputs": [
        {
          "internalType": "address",
          "name": "_recipient",
          "type": "address"
        }
      ],
      "stateMutability": "nonpayable",
      "type": "constructor"
    },
    {
      "inputs": [],
      "name": "recipient",
      "outputs": [
        {
          "internalType": "address",
          "name": "",
          "type": "address"
        }
      ],
      "stateMutability": "view",
      "type": "function"
    },
    {
      "stateMutability": "payable",
      "type": "receive"
    },
    {
      "inputs": [],
      "name": "receivePayment",
      "outputs": [],
      "stateMutability": "payable",
      "type": "function"
    },
    {
      "inputs": [],
      "name": "withdraw",
      "outputs": [],
      "stateMutability": "nonpayable",
      "type": "function"
    }
  ],
  "bytecode": "0x608060405234801561001057600080fd5b5060405161027a38038061027a83398101604081905261002f91610054565b600080546001600160a01b0319166001600160a01b0392909216919091179055610082565b600060208284031215610065578081fd5b81516001600160a01b038116811461007b578182fd5b9392505050565b6101e9806100916000396000f3fe6080604052600436106100385760003560e01c80633ccfd60b1461004457806366d003ac1461005b578063835c19f3146100865761003f565b3661003f57005b600080fd5b34801561005057600080fd5b5061005961008e565b005b34801561006757600080fd5b506100706100fe565b60405161007d919061012f565b60405180910390f35b61005961010d565b6000546001600160a01b031633146100c15760405162461bcd60e51b81526004016100b890610143565b60405180910390fd5b600080546040516001600160a01b03909116914780156108fc02929091818181858888f193505050501580156100fb573d6000803e3d6000fd5b50565b6000546001600160a01b031681565b6000341161012d5760405162461bcd60e51b81526004016100b890610184565b565b6001600160a01b0391909116815260200190565b60208082526021908201527f5365756c206c652064657374696e6174616972652070657574207265746972656040820152603960f91b606082015260800190565b60208082526015908201527404d6f6e74616e7420646f69742065747265203e203605c1b60408201526060019056fea2646970667358221220aff6c738475bf42c7e0e0b8312737fdf09e86debab0692a8aefe7436fa4e70ff64736f6c63430008000033",
  "immutableReferences": {},
  "source": "// SPDX-License-Identifier: MIT\r\npragma solidity ^0.8.0;\r\n\r\ncontract Payment {\r\n    address public recipient;\r\n    \r\n    constructor(address _recipient) {\r\n        recipient = _recipient;\r\n    }\r\n    \r\n    receive() external payable {}\r\n    \r\n    function receivePayment() external payable {\r\n        require(msg.value > 0, \"Montant doit etre > 0\");\r\n    }\r\n    \r\n    function withdraw() external {\r\n        require(msg.sender == recipient, \"Seul le destinataire peut retirer\");\r\n        payable(recipient).transfer(address(this).balance);\r\n    }\r\n}",
  "sourcePath": "C:\\Users\\hp\\blockchain-tp-dapplyp-solidity\\contracts\\exercice8.sol",
  "compiler": {
    "name": "solc",
    "version": "0.8.0+commit.c7dfd78e.Emscripten.clang"
  },
  "schemaVersion": "3.4.16",
  "updatedAt": "2025-07-28T12:24:56.252Z",
  "devdoc": {
    "kind": "dev",
    "methods": {},
    "version": 1
  },
  "userdoc": {
    "kind": "user",
    "methods": {},
    "version": 1
  }
}