{
  "contractName": "Positif",
  "abi": [
    {
      "inputs": [
        {
          "internalType": "int256",
          "name": "_nombre",
          "type": "int256"
        }
      ],
      "name": "estPositif",
      "outputs": [
        {
          "internalType": "bool",
          "name": "",
          "type": "bool"
        }
      ],
      "stateMutability": "pure",
      "type": "function"
    }
  ],
  "bytecode": "0x6080604052348015600f57600080fd5b5060af8061001e6000396000f3fe6080604052348015600f57600080fd5b506004361060285760003560e01c8063fa046abd14602d575b600080fd5b603c60383660046057565b6050565b60405160479190606e565b60405180910390f35b6000131590565b6000602082840312156067578081fd5b5035919050565b90151581526020019056fea2646970667358221220086c258ca43b23b59243aa62a1549182fbdbf7a09829bb576248c2dc6ddc1f7b64736f6c63430008000033",
  "immutableReferences": {},
  "source": "// SPDX-License-Identifier: MIT\r\npragma solidity ^0.8.0;\r\n\r\ncontract Positif {\r\n    function estPositif(int256 _nombre) public pure returns(bool) {\r\n        return _nombre >= 0;\r\n    }\r\n}",
  "sourcePath": "C:\\Users\\hp\\blockchain-tp-dapplyp-solidity\\contracts\\exercice4.sol",
  "compiler": {
    "name": "solc",
    "version": "0.8.0+commit.c7dfd78e.Emscripten.clang"
  },
  "schemaVersion": "3.4.16",
  "updatedAt": "2025-07-28T12:24:56.234Z",
  "devdoc": {
    "kind": "dev",
    "methods": {},
    "version": 1
  },
  "userdoc": {
    "kind": "user",
    "methods": {},
    "version": 1
  }
}