{
  "contractName": "Rectangle",
  "abi": [
    {
      "inputs": [
        {
          "internalType": "uint256",
          "name": "_x",
          "type": "uint256"
        },
        {
          "internalType": "uint256",
          "name": "_y",
          "type": "uint256"
        },
        {
          "internalType": "uint256",
          "name": "_lo",
          "type": "uint256"
        },
        {
          "internalType": "uint256",
          "name": "_la",
          "type": "uint256"
        }
      ],
      "stateMutability": "nonpayable",
      "type": "constructor"
    },
    {
      "inputs": [],
      "name": "afficheXY",
      "outputs": [
        {
          "internalType": "uint256",
          "name": "",
          "type": "uint256"
        },
        {
          "internalType": "uint256",
          "name": "",
          "type": "uint256"
        }
      ],
      "stateMutability": "view",
      "type": "function"
    },
    {
      "inputs": [
        {
          "internalType": "uint256",
          "name": "_dx",
          "type": "uint256"
        },
        {
          "internalType": "uint256",
          "name": "_dy",
          "type": "uint256"
        }
      ],
      "name": "deplacerForme",
      "outputs": [],
      "stateMutability": "nonpayable",
      "type": "function"
    },
    {
      "inputs": [],
      "name": "la",
      "outputs": [
        {
          "internalType": "uint256",
          "name": "",
          "type": "uint256"
        }
      ],
      "stateMutability": "view",
      "type": "function"
    },
    {
      "inputs": [],
      "name": "lo",
      "outputs": [
        {
          "internalType": "uint256",
          "name": "",
          "type": "uint256"
        }
      ],
      "stateMutability": "view",
      "type": "function"
    },
    {
      "inputs": [],
      "name": "x",
      "outputs": [
        {
          "internalType": "uint256",
          "name": "",
          "type": "uint256"
        }
      ],
      "stateMutability": "view",
      "type": "function"
    },
    {
      "inputs": [],
      "name": "y",
      "outputs": [
        {
          "internalType": "uint256",
          "name": "",
          "type": "uint256"
        }
      ],
      "stateMutability": "view",
      "type": "function"
    },
    {
      "inputs": [],
      "name": "surface",
      "outputs": [
        {
          "internalType": "uint256",
          "name": "",
          "type": "uint256"
        }
      ],
      "stateMutability": "view",
      "type": "function"
    },
    {
      "inputs": [],
      "name": "afficheInfos",
      "outputs": [
        {
          "internalType": "string",
          "name": "",
          "type": "string"
        }
      ],
      "stateMutability": "pure",
      "type": "function"
    },
    {
      "inputs": [],
      "name": "afficheLoLa",
      "outputs": [
        {
          "internalType": "uint256",
          "name": "",
          "type": "uint256"
        },
        {
          "internalType": "uint256",
          "name": "",
          "type": "uint256"
        }
      ],
      "stateMutability": "view",
      "type": "function"
    }
  ],
  "bytecode": "0x608060405234801561001057600080fd5b5060405161035738038061035783398101604081905261002f91610046565b60009390935560019190915560025560035561007b565b6000806000806080858703121561005b578384fd5b505082516020840151604085015160609095015191969095509092509050565b6102cd8061008a6000396000f3fe608060405234801561001057600080fd5b50600436106100935760003560e01c806390c33c3f1161006657806390c33c3f146100dc5780639361c232146100e4578063a56dfe4a146100f9578063cd514e4014610101578063cfa8d7a41461010957610093565b80630c55699c146100985780630e94ba83146100b65780637780c14f146100be57806383a443a6146100c6575b600080fd5b6100a061011e565b6040516100ad9190610233565b60405180910390f35b6100a0610124565b6100a061013b565b6100ce610141565b6040516100ad92919061023c565b6100a061014b565b6100f76100f23660046101bf565b610151565b005b6100a0610184565b6100ce61018a565b610111610194565b6040516100ad91906101e0565b60005481565b60006003546002546101369190610262565b905090565b60025481565b6002546003549091565b60035481565b81600080828254610162919061024a565b92505081905550806001600082825461017b919061024a565b90915550505050565b60015481565b6000546001549091565b6040805180820190915260118152704a6520737569732052656374616e676c6560781b602082015290565b600080604083850312156101d1578182fd5b50508035926020909101359150565b6000602080835283518082850152825b8181101561020c578581018301518582016040015282016101f0565b8181111561021d5783604083870101525b50601f01601f1916929092016040019392505050565b90815260200190565b918252602082015260400190565b6000821982111561025d5761025d610281565b500190565b600081600019048311821515161561027c5761027c610281565b500290565b634e487b7160e01b600052601160045260246000fdfea2646970667358221220c50dc5fa702064a9dc9bd2a13542d61229fdc273dfec8d9439d28afdde0366fb64736f6c63430008000033",
  "immutableReferences": {},
  "source": "// SPDX-License-Identifier: MIT\r\npragma solidity ^0.8.0;\r\n\r\nabstract contract Forme {\r\n    uint public x;\r\n    uint public y;\r\n    \r\n    constructor(uint _x, uint _y) {\r\n        x = _x;\r\n        y = _y;\r\n    }\r\n    \r\n    function deplacerForme(uint _dx, uint _dy) public {\r\n        x += _dx;\r\n        y += _dy;\r\n    }\r\n    \r\n    function afficheXY() public view returns(uint, uint) {\r\n        return (x, y);\r\n    }\r\n    \r\n    function afficheInfos() public virtual pure returns(string memory) {\r\n        return \"Je suis une forme\";\r\n    }\r\n    \r\n    function surface() public virtual view returns(uint); // Chang de pure  view\r\n}\r\n\r\ncontract Rectangle is Forme {\r\n    uint public lo;\r\n    uint public la;\r\n    \r\n    constructor(uint _x, uint _y, uint _lo, uint _la) Forme(_x, _y) {\r\n        lo = _lo;\r\n        la = _la;\r\n    }\r\n    \r\n    function surface() public override view returns(uint) { // Chang de pure  view\r\n        return lo * la;\r\n    }\r\n    \r\n    function afficheInfos() public override pure returns(string memory) {\r\n        return \"Je suis Rectangle\";\r\n    }\r\n    \r\n    function afficheLoLa() public view returns(uint, uint) {\r\n        return (lo, la);\r\n    }\r\n}",
  "sourcePath": "C:\\Users\\hp\\blockchain-tp-dapplyp-solidity\\contracts\\exercice7.sol",
  "compiler": {
    "name": "solc",
    "version": "0.8.0+commit.c7dfd78e.Emscripten.clang"
  },
  "schemaVersion": "3.4.16",
  "updatedAt": "2025-07-28T12:24:56.248Z",
  "devdoc": {
    "kind": "dev",
    "methods": {},
    "version": 1
  },
  "userdoc": {
    "kind": "user",
    "methods": {},
    "version": 1
  }
}